{
    "_format": "hh-sol-artifact-1",
    "contractName": "ArtThenticator",
    "sourceName": "contracts/ArtThenticator.sol",
    "abi": [
        {
            "inputs": [],
            "stateMutability": "nonpayable",
            "type": "constructor"
        },
        {
            "anonymous": false,
            "inputs": [
                {
                    "indexed": true,
                    "internalType": "address",
                    "name": "previousOwner",
                    "type": "address"
                },
                {
                    "indexed": true,
                    "internalType": "address",
                    "name": "newOwner",
                    "type": "address"
                }
            ],
            "name": "OwnershipTransferred",
            "type": "event"
        },
        {
            "inputs": [
                {
                    "internalType": "string",
                    "name": "uuid",
                    "type": "string"
                },
                {
                    "internalType": "string",
                    "name": "name",
                    "type": "string"
                },
                {
                    "internalType": "string",
                    "name": "medium",
                    "type": "string"
                },
                {
                    "internalType": "string",
                    "name": "coa",
                    "type": "string"
                },
                {
                    "internalType": "uint256",
                    "name": "date",
                    "type": "uint256"
                }
            ],
            "name": "addArt",
            "outputs": [],
            "stateMutability": "nonpayable",
            "type": "function"
        },
        {
            "inputs": [
                {
                    "internalType": "uint256",
                    "name": "id",
                    "type": "uint256"
                }
            ],
            "name": "getById",
            "outputs": [
                {
                    "components": [
                        {
                            "internalType": "uint256",
                            "name": "id",
                            "type": "uint256"
                        },
                        {
                            "internalType": "string",
                            "name": "uuid",
                            "type": "string"
                        },
                        {
                            "internalType": "string",
                            "name": "name",
                            "type": "string"
                        },
                        {
                            "internalType": "string",
                            "name": "medium",
                            "type": "string"
                        },
                        {
                            "internalType": "string",
                            "name": "coa",
                            "type": "string"
                        },
                        {
                            "internalType": "uint256",
                            "name": "date",
                            "type": "uint256"
                        }
                    ],
                    "internalType": "struct ArtThenticator.Art",
                    "name": "",
                    "type": "tuple"
                }
            ],
            "stateMutability": "view",
            "type": "function"
        },
        {
            "inputs": [
                {
                    "internalType": "string",
                    "name": "uuid",
                    "type": "string"
                }
            ],
            "name": "getIdByUUID",
            "outputs": [
                {
                    "components": [
                        {
                            "internalType": "uint256",
                            "name": "id",
                            "type": "uint256"
                        },
                        {
                            "internalType": "string",
                            "name": "uuid",
                            "type": "string"
                        },
                        {
                            "internalType": "string",
                            "name": "name",
                            "type": "string"
                        },
                        {
                            "internalType": "string",
                            "name": "medium",
                            "type": "string"
                        },
                        {
                            "internalType": "string",
                            "name": "coa",
                            "type": "string"
                        },
                        {
                            "internalType": "uint256",
                            "name": "date",
                            "type": "uint256"
                        }
                    ],
                    "internalType": "struct ArtThenticator.Art",
                    "name": "",
                    "type": "tuple"
                }
            ],
            "stateMutability": "view",
            "type": "function"
        },
        {
            "inputs": [],
            "name": "getNextId",
            "outputs": [
                {
                    "internalType": "uint256",
                    "name": "",
                    "type": "uint256"
                }
            ],
            "stateMutability": "view",
            "type": "function"
        },
        {
            "inputs": [
                {
                    "internalType": "uint256",
                    "name": "id",
                    "type": "uint256"
                },
                {
                    "internalType": "string",
                    "name": "uuid",
                    "type": "string"
                },
                {
                    "internalType": "string",
                    "name": "name",
                    "type": "string"
                },
                {
                    "internalType": "string",
                    "name": "medium",
                    "type": "string"
                },
                {
                    "internalType": "string",
                    "name": "coa",
                    "type": "string"
                },
                {
                    "internalType": "uint256",
                    "name": "date",
                    "type": "uint256"
                }
            ],
            "name": "modifyArt",
            "outputs": [],
            "stateMutability": "nonpayable",
            "type": "function"
        },
        {
            "inputs": [],
            "name": "operator",
            "outputs": [
                {
                    "internalType": "address",
                    "name": "",
                    "type": "address"
                }
            ],
            "stateMutability": "view",
            "type": "function"
        },
        {
            "inputs": [],
            "name": "owner",
            "outputs": [
                {
                    "internalType": "address",
                    "name": "",
                    "type": "address"
                }
            ],
            "stateMutability": "view",
            "type": "function"
        },
        {
            "inputs": [],
            "name": "renounceOwnership",
            "outputs": [],
            "stateMutability": "nonpayable",
            "type": "function"
        },
        {
            "inputs": [
                {
                    "internalType": "address",
                    "name": "_opereator",
                    "type": "address"
                }
            ],
            "name": "setOperator",
            "outputs": [],
            "stateMutability": "nonpayable",
            "type": "function"
        },
        {
            "inputs": [
                {
                    "internalType": "address",
                    "name": "newOwner",
                    "type": "address"
                }
            ],
            "name": "transferOwnership",
            "outputs": [],
            "stateMutability": "nonpayable",
            "type": "function"
        }
    ],
    "bytecode": "0x6080604052600160025534801561001557600080fd5b5061001f33610036565b600180546001600160a01b03191633179055610086565b600080546001600160a01b038381166001600160a01b0319831681178455604051919092169283917f8be0079c531659141344cd1fd0a4f28419497f9722a3daafe3b4186f6b6457e09190a35050565b610ea6806100956000396000f3fe608060405234801561001057600080fd5b506004361061008e5760003560e01c80632a5d8de814610093578063570ca735146100a8578063715018a6146100d85780638da5cb5b146100e0578063b03269f3146100e8578063b3ab15fb14610108578063bc9683261461011b578063beb53a7814610131578063f2fde38b14610144578063f4f4d23714610157575b600080fd5b6100a66100a1366004610b6a565b61016a565b005b6001546100bb906001600160a01b031681565b6040516001600160a01b0390911681526020015b60405180910390f35b6100a6610315565b6100bb610329565b6100fb6100f6366004610a69565b610338565b6040516100cf9190610d32565b6100a6610116366004610a3b565b6105cc565b6101236105f6565b6040519081526020016100cf565b6100a661013f366004610aa3565b61062a565b6100a6610152366004610a3b565b61076e565b6100fb610165366004610b52565b6107e7565b6001546001600160a01b0316331461019d5760405162461bcd60e51b815260040161019490610d06565b60405180910390fd5b60025486106101e25760405162461bcd60e51b8152602060048201526011602482015270125108191bd95cc81b9bdd08195e1a5cdd607a1b6044820152606401610194565b60008681526004602052604080822090516003916101ff91610c6b565b90815260200160405180910390206000018190555060006040518060c00160405280888152602001878152602001868152602001858152602001848152602001838152509050806003876040516102569190610c4f565b908152602001604051809103902060008201518160000155602082015181600101908051906020019061028a9291906108e6565b50604082015180516102a69160028401916020909101906108e6565b50606082015180516102c29160038401916020909101906108e6565b50608082015180516102de9160048401916020909101906108e6565b5060a091909101516005909101556000878152600460209081526040909120875161030b928901906108e6565b5050505050505050565b61031d610837565b6103276000610896565b565b6000546001600160a01b031690565b61034061096a565b6003826040516103509190610c4f565b90815260200160405180910390206040518060c00160405290816000820154815260200160018201805461038390610df8565b80601f01602080910402602001604051908101604052809291908181526020018280546103af90610df8565b80156103fc5780601f106103d1576101008083540402835291602001916103fc565b820191906000526020600020905b8154815290600101906020018083116103df57829003601f168201915b5050505050815260200160028201805461041590610df8565b80601f016020809104026020016040519081016040528092919081815260200182805461044190610df8565b801561048e5780601f106104635761010080835404028352916020019161048e565b820191906000526020600020905b81548152906001019060200180831161047157829003601f168201915b505050505081526020016003820180546104a790610df8565b80601f01602080910402602001604051908101604052809291908181526020018280546104d390610df8565b80156105205780601f106104f557610100808354040283529160200191610520565b820191906000526020600020905b81548152906001019060200180831161050357829003601f168201915b5050505050815260200160048201805461053990610df8565b80601f016020809104026020016040519081016040528092919081815260200182805461056590610df8565b80156105b25780601f10610587576101008083540402835291602001916105b2565b820191906000526020600020905b81548152906001019060200180831161059557829003601f168201915b505050505081526020016005820154815250509050919050565b6105d4610837565b600180546001600160a01b0319166001600160a01b0392909216919091179055565b6001546000906001600160a01b031633146106235760405162461bcd60e51b815260040161019490610d06565b5060025490565b6001546001600160a01b031633146106545760405162461bcd60e51b815260040161019490610d06565b60006040518060c001604052806002548152602001878152602001868152602001858152602001848152602001838152509050806003876040516106989190610c4f565b90815260200160405180910390206000820151816000015560208201518160010190805190602001906106cc9291906108e6565b50604082015180516106e89160028401916020909101906108e6565b50606082015180516107049160038401916020909101906108e6565b50608082015180516107209160048401916020909101906108e6565b5060a0919091015160059091015560025460009081526004602090815260409091208751610750928901906108e6565b506002805490600061076183610e33565b9190505550505050505050565b610776610837565b6001600160a01b0381166107db5760405162461bcd60e51b815260206004820152602660248201527f4f776e61626c653a206e6577206f776e657220697320746865207a65726f206160448201526564647265737360d01b6064820152608401610194565b6107e481610896565b50565b6107ef61096a565b6001546001600160a01b031633146108195760405162461bcd60e51b815260040161019490610d06565b60008281526004602052604090819020905160039161035091610c6b565b33610840610329565b6001600160a01b0316146103275760405162461bcd60e51b815260206004820181905260248201527f4f776e61626c653a2063616c6c6572206973206e6f7420746865206f776e65726044820152606401610194565b600080546001600160a01b038381166001600160a01b0319831681178455604051919092169283917f8be0079c531659141344cd1fd0a4f28419497f9722a3daafe3b4186f6b6457e09190a35050565b8280546108f290610df8565b90600052602060002090601f016020900481019282610914576000855561095a565b82601f1061092d57805160ff191683800117855561095a565b8280016001018555821561095a579182015b8281111561095a57825182559160200191906001019061093f565b506109669291506109a0565b5090565b6040518060c001604052806000815260200160608152602001606081526020016060815260200160608152602001600081525090565b5b8082111561096657600081556001016109a1565b600082601f8301126109c5578081fd5b81356001600160401b03808211156109df576109df610e5a565b604051601f8301601f19908116603f01168101908282118183101715610a0757610a07610e5a565b81604052838152866020858801011115610a1f578485fd5b8360208701602083013792830160200193909352509392505050565b600060208284031215610a4c578081fd5b81356001600160a01b0381168114610a62578182fd5b9392505050565b600060208284031215610a7a578081fd5b81356001600160401b03811115610a8f578182fd5b610a9b848285016109b5565b949350505050565b600080600080600060a08688031215610aba578081fd5b85356001600160401b0380821115610ad0578283fd5b610adc89838a016109b5565b96506020880135915080821115610af1578283fd5b610afd89838a016109b5565b95506040880135915080821115610b12578283fd5b610b1e89838a016109b5565b94506060880135915080821115610b33578283fd5b50610b40888289016109b5565b95989497509295608001359392505050565b600060208284031215610b63578081fd5b5035919050565b60008060008060008060c08789031215610b82578081fd5b8635955060208701356001600160401b0380821115610b9f578283fd5b610bab8a838b016109b5565b96506040890135915080821115610bc0578283fd5b610bcc8a838b016109b5565b95506060890135915080821115610be1578283fd5b610bed8a838b016109b5565b94506080890135915080821115610c02578283fd5b50610c0f89828a016109b5565b92505060a087013590509295509295509295565b60008151808452610c3b816020860160208601610dc8565b601f01601f19169290920160200192915050565b60008251610c61818460208701610dc8565b9190910192915050565b600080835482600182811c915080831680610c8757607f831692505b6020808410821415610ca757634e487b7160e01b87526022600452602487fd5b818015610cbb5760018114610ccc57610cf8565b60ff19861689528489019650610cf8565b60008a815260209020885b86811015610cf05781548b820152908501908301610cd7565b505084890196505b509498975050505050505050565b60208082526012908201527129b437bab6321031329037b832b930ba37b960711b604082015260600190565b60208152815160208201526000602083015160c06040840152610d5860e0840182610c23565b90506040840151601f1980858403016060860152610d768383610c23565b92506060860151915080858403016080860152610d938383610c23565b925060808601519150808584030160a086015250610db18282610c23565b91505060a084015160c08401528091505092915050565b60005b83811015610de3578181015183820152602001610dcb565b83811115610df2576000848401525b50505050565b600181811c90821680610e0c57607f821691505b60208210811415610e2d57634e487b7160e01b600052602260045260246000fd5b50919050565b6000600019821415610e5357634e487b7160e01b81526011600452602481fd5b5060010190565b634e487b7160e01b600052604160045260246000fdfea2646970667358221220c2f5ac66762385bf2d3437dc3a42899d68987e57145bfc07e554e7682b991ee264736f6c63430008040033",
    "linkReferences": {},
    "deployedLinkReferences": {}
}